{
  "contractName": "ToDoList",
  "abi": [
    {
      "constant": true,
      "inputs": [],
      "name": "taskcount",
      "outputs": [
        {
          "name": "",
          "type": "uint256"
        }
      ],
      "payable": false,
      "stateMutability": "view",
      "type": "function",
      "signature": "0x8bd48089"
    },
    {
      "constant": false,
      "inputs": [
        {
          "name": "",
          "type": "uint256"
        }
      ],
      "name": "set",
      "outputs": [],
      "payable": false,
      "stateMutability": "nonpayable",
      "type": "function",
      "signature": "0x60fe47b1"
    }
  ],
  "bytecode": "0x608060405234801561001057600080fd5b5060e98061001f6000396000f3fe6080604052600436106049576000357c0100000000000000000000000000000000000000000000000000000000900463ffffffff16806360fe47b114604e5780638bd48089146085575b600080fd5b348015605957600080fd5b50608360048036036020811015606e57600080fd5b810190808035906020019092919050505060ad565b005b348015609057600080fd5b50609760b7565b6040518082815260200191505060405180910390f35b6000808190555050565b6000548156fea165627a7a723058209c3dd8cbd9d3ff7f26f9b262f1103a896a427b8b1a15b6e51dc8360f384ff9930029",
  "source": "// SPDX-License-Identifier: MIT\n\npragma solidity ^0.5.0;\n\ncontract ToDoList {\n    //add the task counts as a state variable\n    uint public taskcount ;\n\n    //Function to set the value of task counts\n    function set(uint) public {\n        taskcount = 0;\n    }\n}\n",
  "sourcePath": "/home/hp/Desktop/Eth/To-Do_Dapp/contracts/ToDoList.sol",
  "compiler": {
    "name": "solc",
    "version": "0.5.0+commit.1d4f565a.Emscripten.clang"
  },
  "schemaVersion": "3.0.2",
  "updatedAt": "2023-04-12T14:04:51.070Z",
  "devdoc": {
    "methods": {}
  },
  "userdoc": {
    "methods": {}
  }
}