{
  "contractName": "ToDoList",
  "abi": [
    {
      "constant": true,
      "inputs": [
        {
          "name": "",
          "type": "uint256"
        }
      ],
      "name": "tasks_map",
      "outputs": [
        {
          "name": "task_id",
          "type": "uint256"
        },
        {
          "name": "task_to_do",
          "type": "string"
        },
        {
          "name": "completed",
          "type": "bool"
        }
      ],
      "payable": false,
      "stateMutability": "view",
      "type": "function",
      "signature": "0xa7455f2e"
    },
    {
      "constant": true,
      "inputs": [],
      "name": "task_count",
      "outputs": [
        {
          "name": "",
          "type": "uint256"
        }
      ],
      "payable": false,
      "stateMutability": "view",
      "type": "function",
      "signature": "0xb3435251"
    },
    {
      "inputs": [],
      "payable": false,
      "stateMutability": "nonpayable",
      "type": "constructor",
      "signature": "constructor"
    },
    {
      "constant": false,
      "inputs": [
        {
          "name": "_task_to_do",
          "type": "string"
        }
      ],
      "name": "tasks_structure_mapping",
      "outputs": [],
      "payable": false,
      "stateMutability": "nonpayable",
      "type": "function",
      "signature": "0xf0d2db73"
    }
  ],
  "bytecode": "0x60806040526000805534801561001457600080fd5b506100af608060405190810160405280605481526020017f5468697320697320612064656661756c74207461736b20746f2066696e69736881526020017f207768656e20796f75206465706c6f79207468697320736d61727420636f6e7481526020017f72616374207468652066697273742074696d652e0000000000000000000000008152506100b4640100000000026401000000009004565b6101bb565b600080546001908101808355604080516060810182528281526020808201878152828401879052938652848152919094208451815591518051929361010193908501929190910190610120565b50604091909101516002909101805460ff191691151591909117905550565b828054600181600116156101000203166002900490600052602060002090601f016020900481019282601f1061016157805160ff191683800117855561018e565b8280016001018555821561018e579182015b8281111561018e578251825591602001919060010190610173565b5061019a92915061019e565b5090565b6101b891905b8082111561019a57600081556001016101a4565b90565b6103d3806101ca6000396000f3fe6080604052600436106100565763ffffffff7c0100000000000000000000000000000000000000000000000000000000600035041663a7455f2e811461005b578063b34352511461010f578063f0d2db7314610136575b600080fd5b34801561006757600080fd5b506100856004803603602081101561007e57600080fd5b50356101eb565b604051808481526020018060200183151515158152602001828103825284818151815260200191508051906020019080838360005b838110156100d25781810151838201526020016100ba565b50505050905090810190601f1680156100ff5780820380516001836020036101000a031916815260200191505b5094505050505060405180910390f35b34801561011b57600080fd5b5061012461029a565b60408051918252519081900360200190f35b34801561014257600080fd5b506101e96004803603602081101561015957600080fd5b81019060208101813564010000000081111561017457600080fd5b82018360208201111561018657600080fd5b803590602001918460018302840111640100000000831117156101a857600080fd5b91908080601f0160208091040260200160405190810160405280939291908181526020018383808284376000920191909152509295506102a0945050505050565b005b600160208181526000928352604092839020805481840180548651600296821615610100026000190190911695909504601f810185900485028601850190965285855290949193929091908301828280156102875780601f1061025c57610100808354040283529160200191610287565b820191906000526020600020905b81548152906001019060200180831161026a57829003601f168201915b5050506002909301549192505060ff1683565b60005481565b60008054600190810180835560408051606081018252828152602080820187815282840187905293865284815291909420845181559151805192936102ed9390850192919091019061030c565b50604091909101516002909101805460ff191691151591909117905550565b828054600181600116156101000203166002900490600052602060002090601f016020900481019282601f1061034d57805160ff191683800117855561037a565b8280016001018555821561037a579182015b8281111561037a57825182559160200191906001019061035f565b5061038692915061038a565b5090565b6103a491905b808211156103865760008155600101610390565b9056fea165627a7a7230582058173a04edfe08611449ffbe5a157dddcf198701e8d64c3e7302a19fbddbc2e40029",
  "source": "// SPDX-License-Identifier: MIT\n\npragma solidity ^0.5.0;\n\ncontract ToDoList {\n    //add the task counts as a state variable\n    uint public task_count = 0;\n\n    //define the structure of our to do list\n    struct tasks_structure {\n        uint task_id;   //an unsigned int.\n        string task_to_do;\n        bool completed;\n    }\n\n    //Store our tasks in blockchain; key is an uint id, value tasks_structure\n    mapping(uint => tasks_structure) public tasks_map;\n\n\n    //constructor fn for when smart contract is deployed first time\n    constructor() public {\n        tasks_structure_mapping(\"This is a default task to finish when you deploy this smart contract the first time.\");\n    }\n\n\n    //add tasks_list to mapping\n    function tasks_structure_mapping(string memory _task_to_do) public {\n        task_count ++;\n        tasks_map[task_count] = tasks_structure(task_count, _task_to_do, false);\n\n\n    }\n\n\n}\n",
  "sourcePath": "/home/hp/Desktop/Eth/To-Do_Dapp/contracts/ToDoList.sol",
  "compiler": {
    "name": "solc",
    "version": "0.5.0+commit.1d4f565a.Emscripten.clang"
  },
  "schemaVersion": "3.0.2",
  "updatedAt": "2023-04-13T14:00:26.641Z",
  "devdoc": {
    "methods": {}
  },
  "userdoc": {
    "methods": {}
  }
}